:020000040800F2
:1080000000000220098E0008018D00080F8D000875
:10801000158D00081B8D0008218D00080000000050
:10802000000000000000000000000000278D000894
:10803000358D000800000000438D0008518D0008B8
:10804000598E0008598E0008598E0008598E000874
:10805000598E0008598E0008598E0008598E000864
:10806000598E0008598E0008598E0008598E000854
:10807000598E0008598E0008598E0008598E000844
:10808000598E0008598E0008598E0008598E000834
:10809000598E0008598E0008598E0008598E000824
:1080A000598E0008598E0008598E0008598E000814
:1080B000598E0008598E0008598E0008598E000804
:1080C000598E0008598E0008598E0008598E0008F4
:1080D000598E0008598E0008598E0008598E0008E4
:1080E000598E0008598E0008598E0008598E0008D4
:1080F000598E0008598E0008598E0008598E0008C4
:10810000598E0008598E0008598E0008598E0008B3
:10811000598E0008598E0008598E0008598E0008A3
:10812000598E0008598E0008598E0008598E000893
:10813000598E0008598E0008598E0008598E000883
:10814000598E0008598E0008598E00085D8D000870
:10815000598E0008598E0008598E0008598E000863
:10816000598E0008598E0008598E0008598E000853
:10817000598E0008598E0008598E00080000000032
:08818000598E0008598E000819
:1081880010B5054C237833B9044B13B10448AFF349
:1081980000800123237010BD900000200000000023
:1081A80074F6000808B5034B1BB103490348AFF345
:1081B800008008BD000000009400002074F600084C
:1081C80053B94AB9002908BF00281CBF4FF0FF3136
:1081D8004FF0FF3000F072B9ADF1080C6DE904CE34
:1081E80000F006F8DDF804E0DDE9022304B070478A
:1081F8002DE9F047089E04468846002B4BD18A4259
:10820800154667D9B2FA82F24AB1C2F1200701FADB
:1082180002F320FA07F7954047EA030894404FEA2B
:10822800154E230CB8FBFEF71FFA85FC0EFB1788CA
:1082380043EA084307FB0CF1994209D9EB1807F107
:10824800FF3080F01B81994240F21881023F2B4495
:108258005B1AA4B2B3FBFEF00EFB103344EA0344EE
:1082680000FB0CFCA44509D92C1900F1FF3380F060
:108278000781A44540F2048102382C4440EA0740B3
:10828800A4EB0C0400271EB1D4400023C6E9004328
:108298003946BDE8F0878B4209D9002E00F0EB8003
:1082A8000027C6E9000138463946BDE8F087B3FA29
:1082B80083F7002F47D18B4202D3824200F2FA8023
:1082C800841A61EB030301209846002EE0D0C6E92A
:1082D8000048DDE702B9FFDEB2FA82F2002A40F078
:1082E8008F80491B4FEA154E1FFA85F80127B1FB0D
:1082F800FEFC230C0EFB1C1143EA014308FB0CF1A6
:10830800994207D9EB180CF1FF3002D2994200F2DA
:10831800CD808446591AA3B2B1FBFEF00EFB1014AF
:1083280043EA044408FB00F8A04507D92C1900F1DA
:10833800FF3302D2A04500F2B6801846A4EB080429
:1083480040EA0C409FE7C7F1200CBB4022FA0CFE24
:108358004EEA030E01FA07F420FA0CF521FA0CF3A1
:108368004FEA1E482543B3FBF8F92C0C08FB1933D8
:108378001FFA8EFA44EA034309FB0AF49C4202FA04
:1083880007F200FA07F10BD91EEB030309F1FF30DE
:1083980080F087809C4240F28480A9F102097344EE
:1083A8001B1BADB2B3FBF8F008FB103345EA0344DE
:1083B80000FB0AFAA24508D91EEB040400F1FF33BA
:1083C8006BD2A24569D90238744440EA0940A0FB3F
:1083D8000289A4EB0A044C45C2464B4654D351D0FB
:1083E800002E69D0B1EB0A0564EB030404FA0CFC17
:1083F800FD40FC404CEA0505C6E90054002747E764
:10840800C2F1200320FA03F7954001FA02F021FA9D
:1084180003F34FEA154E3843010CB3FBFEF71FFA7E
:1084280085F80EFB173341EA034107FB08F38B423B
:1084380004FA02F407D9691807F1FF3C2FD28B42DE
:108448002DD9023F2944CB1A81B2B3FBFEF00EFBB3
:10845800103341EA034100FB08F38B4207D969183E
:1084680000F1FF3C17D28B4215D902382944C91AAA
:1084780040EA07473BE73746304609E70746E7E65D
:108488001846FBE64145ABD2B8EB020A69EB0E028F
:1084980001381346A4E76046E9E7184695E76746BA
:1084A800D1E781467CE702382C4447E7ACF1020C5F
:1084B8002B442FE7384608E73746E9E6704700BF00
:1084C80080B500AF00F0C6FC00F032F800F084F987
:1084D80000F0C4F800F0F0F800F01EF906F016FD00
:1084E80000F0A8F800F04EF94FF47A7314220C4902
:1084F8000C4804F03EF940F6B83000F01DFD4FF48A
:108508007A7314220849074804F033F94FF40051EC
:10851800064801F014F840F6B83000F00DFDEEE71B
:108528008CF6000878010020A0F60008000C024034
:1085380080B598B000AF07F130033022002118460B
:1085480006F0D2FF07F11C0300221A605A609A60F5
:10855800DA601A6107F10C0300221A605A609A6007
:10856800DA600023BB60314B1B6C304A43F0805308
:1085780013642E4B1B6C03F08053BB60BB68002355
:108588007B602B4B1B682A4A43F480431360284BBB
:108598001B6803F480437B607B6801233B634FF4D3
:1085A80080337B630223BB644FF48003FB6408239E
:1085B8003B654FF4A8737B650223BB650723FB6506
:1085C80007F13003184603F083FA0346002B01D065
:1085D80000F000FA0F23FB6102233B6200237B6259
:1085E8004FF4A053BB624FF48053FB6207F11C03A6
:1085F8000521184603F0DCFC0346002B01D000F0EF
:10860800E9F90123FB60C0233B6102237B6107F189
:108618000C03184603F0BEFE0346002B01D000F001
:10862800D9F900BF6037BD4680BD00BF00380240A1
:108638000070004080B500AF064B074A1A60054835
:1086480000F0ADFD0346002B01D000F0C3F900BFD8
:1086580080BD00BF180100200030024080B500AF87
:10866800124B134A1A60114B124A5A600F4B0022E0
:108678009A600E4B0022DA600C4B4FF480421A616C
:108688000A4B00225A61094B00229A61074B0022CB
:10869800DA61064B00221A62044802F041FC0346E4
:1086A800002B01D000F096F900BF80BDC400002067
:1086B80000540040A086010080B500AF134B144A57
:1086C8001A60124B4FF400725A60104B00229A60E5
:1086D8000E4B0022DA600D4B4FF400721A610B4BFF
:1086E8000C4A5A61094B00229A61084B0022DA6150
:1086F800064B00221A62054802F04AFD0346002B89
:1087080001D000F067F900BF80BD00BFB8010020AC
:10871800003C00400077010080B500AF174B184AB5
:108728001A60164B4FF482725A60144B00229A60FA
:10873800124B0022DA60114B00221A610F4B002203
:108748005A610E4B4FF400729A610C4B0022DA61A9
:108758000A4B00221A62094B00225A62074B002278
:108768009A62064B0A22DA62044803F051FF034674
:10877800002B01D000F02EF900BF80BD20010020A1
:108788000030014080B500AF114B124A1A60104BFF
:108798004FF4E1325A600E4B00229A600C4B0022D3
:1087A800DA600B4B00221A61094B0C225A61084B04
:1087B80000229A61064B0022DA61054803F08CFF1B
:1087C8000346002B01D000F005F900BF80BD00BFB3
:1087D800780100200044004080B58CB000AF07F15C
:1087E8001C0300221A605A609A60DA601A6100233A
:1087F800BB61714B1B6B704A43F0100313636E4BE4
:108808001B6B03F01003BB61BB6900237B616A4BE0
:108818001B6B694A43F004031363674B1B6B03F03C
:1088280004037B617B6900233B61634B1B6B624ADA
:1088380043F080031363604B1B6B03F080033B61C1
:108848003B690023FB605C4B1B6B5B4A43F00103F5
:108858001363594B1B6B03F00103FB60FB68002398
:10886800BB60554B1B6B544A43F002031363524BD6
:108878001B6B03F00203BB60BB6800237B604E4B9D
:108888001B6B4D4A43F0080313634B4B1B6B03F000
:1088980008037B607B6800220821484800F036FE08
:1088A80001220121464800F031FE00224FF210015A
:1088B800444800F02BFE0823FB6101233B620023A0
:1088C8007B620023BB6207F11C0319463B4800F09A
:1088D80083FC0123FB6101233B6200237B620023AD
:1088E800BB6207F11C031946354800F075FC0823E4
:1088F800FB6102233B6200237B620023BB620523EA
:10890800FB6207F11C0319462D4800F065FC0123A2
:10891800FB612D4B3B6200237B6207F11C03194668
:108928002A4800F059FC0423FB6100233B62002322
:108938007B6207F11C031946254800F04DFC4FF4F3
:108948008063FB6102233B6200237B620023BB62DE
:108958000523FB6207F11C0319461D4800F03CFC87
:108968004FF21003FB6101233B6200237B6200236B
:10897800BB6207F11C031946124800F02DFC2023A6
:10898800FB6100233B6200237B6207F11C0319464D
:108998000C4800F021FC0223FB610B4B3B620023D7
:1089A8007B6207F11C031946044800F015FC00BF60
:1089B8003037BD4680BD00BF00380240001002407D
:1089C80000080240000C02400000121000000240A3
:1089D8000004024080B400AF00BFBD465DF8047BD0
:1089E8007047000080B582B000AF00237B60104B59
:1089F8005B6C0F4A43F4804353640D4B5B6C03F488
:108A080080437B607B6800233B60094B1B6C084AF2
:108A180043F080531364064B1B6C03F080533B6098
:108A28003B68072000F07AFB00BF0837BD4680BDD1
:108A38000038024080B485B000AF78607B681B685E
:108A48000B4A93420DD10023FB600A4B1B6B094A6A
:108A580043F480531363074B1B6B03F48053FB6091
:108A6800FB6800BF1437BD465DF8047B704700BF44
:108A7800003002400038024080B58AB000AF78600C
:108A880007F1140300221A605A609A60DA601A61CA
:108A98007B681B68194A93422CD100233B61184B11
:108AA8001B6B174A43F002031363154B1B6B03F050
:108AB80002033B613B694FF410737B611223BB6176
:108AC8000123FB6100233B6204237B6207F114034B
:108AD80019460C4800F080FB0023FB60084B1B6C18
:108AE800074A43F400131364054B1B6C03F400138B
:108AF800FB60FB6800BF2837BD4680BD00540040BE
:108B0800003802400004024080B58AB000AF7860A7
:108B180007F1140300221A605A609A60DA601A6139
:108B28007B681B68284A93424AD100233B61274B44
:108B38001B6C264A43F400431364244B1B6C03F458
:108B480000433B613B690023FB60204B1B6B1F4AC2
:108B580043F0010313631D4B1B6B03F00103FB6020
:108B6800FB680023BB60194B1B6B184A43F00403D6
:108B78001363164B1B6B03F00403BB60BB68102325
:108B88007B610223BB610023FB6100233B62062358
:108B98007B6207F1140319460D4800F01DFB4FF4E2
:108BA800A4537B610223BB610023FB6100233B626A
:108BB80006237B6207F114031946064800F00CFBF4
:108BC80000BF2837BD4680BD003C00400038024049
:108BD800000002400008024080B58AB000AF78600B
:108BE80007F1140300221A605A609A60DA601A6169
:108BF8007B681B68194A93422BD100233B61184BB1
:108C08005B6C174A43F480535364154B5B6C03F455
:108C180080533B613B690023FB60114B1B6B104A7F
:108C280043F0010313630E4B1B6B03F00103FB605E
:108C3800FB68E0237B610223BB610023FB61002307
:108C48003B6205237B6207F114031946054800F0CF
:108C5800C3FA00BF2837BD4680BD00BF00300140C1
:108C6800003802400000024080B58AB000AF78604A
:108C780007F1140300221A605A609A60DA601A61D8
:108C88007B681B68194A93422BD100233B61184B20
:108C98001B6C174A43F400331364154B1B6C03F425
:108CA80000333B613B690023FB60114B1B6B104A8F
:108CB80043F0010313630E4B1B6B03F00103FB60CE
:108CC800FB680C237B610223BB610023FB61032348
:108CD8003B6207237B6207F114031946054800F03D
:108CE8007BFA00BF2837BD4680BD00BF0044004066
:108CF800003802400000024080B400AF00BFBD460B
:108D08005DF8047B704780B400AFFEE780B400AF25
:108D1800FEE780B400AFFEE780B400AFFEE780B4A2
:108D280000AF00BFBD465DF8047B704780B400AF5C
:108D380000BFBD465DF8047B704780B400AF00BF3C
:108D4800BD465DF8047B704780B500AF00F0D4F8ED
:108D580000BF80BD80B500AF024800F09BFE00BF99
:108D680080BD00BFDC05002080B586B000AF78600C
:108D7800144A154BD31A7B617B693B61134B1B6803
:108D8800002B02D1114B124A1A60104B1A687B68EB
:108D980013443A699A4207D206F06CFB02460C2348
:108DA80013604FF0FF3309E0084B1B68FB60074B6B
:108DB8001A687B681344054A1360FB68184618371D
:108DC800BD4680BD0000022000040000AC00002069
:108DD800A808002080B400AF074BD3F88830064AB3
:108DE80043F47003C2F88830034B044A9A6000BF0A
:108DF800BD465DF8047B704700ED00E00080000888
:108E0800DFF834D0002103E00C4B5B5843500431A9
:108E18000B480C4B42189A42F6D30B4A02E0002347
:108E280042F8043B094B9A42F9D3FFF7D3FF06F007
:108E380027FBFFF745FB704700000220E0F600081B
:108E4800000000209000002090000020A4080020CE
:108E5800FEE7000080B500AF0E4B1B680D4A43F4D7
:108E6800007313600B4B1B680A4A43F4806313605A
:108E7800084B1B68074A43F480731360032000F013
:108E88004DF9002000F008F8FFF7ACFD0023184664
:108E980080BD00BF003C024080B582B000AF786062
:108EA800124B1A68124B1B7819464FF47A73B3FBAE
:108EB800F1F3B2FBF3F3184600F065F90346002B13
:108EC80001D001230EE07B680F2B0AD800227968B5
:108ED8004FF0FF3000F02DF9064A7B68136000233D
:108EE80000E0012318460837BD4680BD0000002079
:108EF800080000200400002080B400AF064B1B7857
:108F08001A46064B1B681344044A136000BFBD464B
:108F18005DF8047B704700BF0800002000020020B5
:108F280080B400AF034B1B681846BD465DF8047B50
:108F3800704700BF0002002080B584B000AF7860A1
:108F4800FFF7EEFFB8607B68FB60FB68B3F1FF3F9B
:108F580005D0094B1B781A46FB681344FB6000BF19
:108F6800FFF7DEFF0246BB68D31AFA689A42F7D8C1
:108F780000BF1037BD4680BD0800002080B485B012
:108F880000AF78607B6803F00703FB600C4BDB687D
:108F9800BB60BA684FF6FF031340BB60FB681A0258
:108FA800BB68134343F0BF6343F40033BB60044A18
:108FB800BB68D36000BF1437BD465DF8047B7047BB
:108FC80000ED00E080B400AF044BDB681B0A03F03F
:108FD80007031846BD465DF8047B704700ED00E0C6
:108FE80080B483B000AF0346FB7197F90730002BBC
:108FF8000BDBFB7903F01F02074997F907305B0980
:10900800012000FA02F241F8232000BF0C37BD46C8
:109018005DF8047B704700BF00E100E080B483B0D6
:1090280000AF03463960FB7197F90730002B0ADB64
:109038003B68DAB20C4997F907301201D2B20B44F7
:1090480083F800230AE03B68DAB20849FB7903F0A9
:109058000F03043B1201D2B20B441A7600BF0C373F
:10906800BD465DF8047B704700E100E000ED00E0DC
:1090780080B489B000AFF860B9607A60FB6803F02B
:109088000703FB61FB69C3F10703042B28BF042313
:10909800BB61FB690433062B02D9FB69033B00E083
:1090A80000237B614FF0FF32BB6902FA03F3DA4316
:1090B800BB681A407B699A404FF0FF317B6901FA1F
:1090C80003F3D9437B680B40134318462437BD4646
:1090D8005DF8047B7047000080B582B000AF78600F
:1090E8007B68013BB3F1807F01D301230FE00A4A7B
:1090F8007B68013B53600F214FF0FF30FFF78EFF75
:10910800054B00229A60044B07221A600023184678
:109118000837BD4680BD00BF10E000E080B582B0D2
:1091280000AF78607868FFF729FF00BF0837BD46B1
:1091380080BD80B586B000AF0346B9607A60FB7326
:1091480000237B61FFF73EFF78617A68B968786928
:10915800FFF78EFF024697F90F3011461846FFF7C2
:109168005DFF00BF1837BD4680BD80B582B000AF37
:109178000346FB7197F907301846FFF731FF00BF28
:109188000837BD4680BD80B582B000AF786078688A
:10919800FFF7A2FF034618460837BD4680BD80B5D5
:1091A80082B000AF78607B68002B01D101230EE00C
:1091B8007B685B79DBB2002B05D17B6800221A71D2
:1091C8007868FFF737FC7B6801225A71002318463C
:1091D8000837BD4680BD000080B489B000AF786014
:1091E800396000237B6100233B610023BB610023BE
:1091F800FB616BE10122FB6902FA03F37B613B68C7
:109208001B687A6913403B613A697B699A4240F06E
:109218005A813B685B68012B0BD03B685B68022B6B
:1092280007D03B685B68112B03D03B685B68122B47
:1092380030D17B689B68BB61FB695B00032202FA43
:1092480003F3DB43BA691340BB613B68DA68FB6927
:109258005B0002FA03F3BA691343BB617B68BA691E
:109268009A607B685B68BB610122FB6902FA03F3C1
:10927800DB43BA691340BB613B685B681B0903F0B9
:109288000102FB6902FA03F3BA691343BB617B6805
:10929800BA695A607B68DB68BB61FB695B000322C3
:1092A80002FA03F3DB43BA691340BB613B689A686F
:1092B800FB695B0002FA03F3BA691343BB617B687D
:1092C800BA69DA603B685B68022B03D03B685B686D
:1092D800122B23D1FB69DA087B68083253F8223055
:1092E800BB61FB6903F007039B000F2202FA03F33B
:1092F800DB43BA691340BB613B681A69FB6903F039
:1093080007039B0002FA03F3BA691343BB61FB69C5
:10931800DA087B680832B96943F822107B681B6851
:10932800BB61FB695B00032202FA03F3DB43BA6902
:109338001340BB613B685B6803F00302FB695B0099
:1093480002FA03F3BA691343BB617B68BA691A600E
:109358003B685B6803F08053002B00F0B480002367
:10936800FB605F4B5B6C5E4A43F4804353645C4B29
:109378005B6C03F48043FB60FB685A4AFB699B08FB
:10938800023352F82330BB61FB6903F003039B00EF
:109398000F2202FA03F3DB43BA691340BB617B680F
:1093A800514A93422BD07B68504A934225D07B6820
:1093B8004F4A93421FD07B684E4A934219D07B682C
:1093C8004D4A934213D07B684C4A93420DD07B6838
:1093D8004B4A934207D07B684A4A934201D10723FC
:1093E8000EE008230CE006230AE0052308E0042326
:1093F80006E0032304E0022302E0012300E0002347
:10940800FA6902F0030292009340BA691343BB6100
:109418003449FB699B080233BA6941F823203A4B67
:109428001B68BB613B69DB43BA691340BB613B689E
:109438005B6803F48033002B03D0BA693B6913439C
:10944800BB61314ABB6913602F4B5B68BB613B69E9
:10945800DB43BA691340BB613B685B6803F40033C4
:10946800002B03D0BA693B691343BB61264ABB6929
:109478005360254B9B68BB613B69DB43BA6913406A
:10948800BB613B685B6803F48013002B03D0BA69A7
:109498003B691343BB611C4ABB6993601A4BDB6889
:1094A800BB613B69DB43BA691340BB613B685B68DE
:1094B80003F40013002B03D0BA693B691343BB6163
:1094C800114ABB69D360FB690133FB61FB690F2B50
:1094D8007FF690AE00BF2437BD465DF8047B704729
:1094E80000380240003801400000024000040240F9
:1094F80000080240000C0240001002400014024024
:1095080000180240001C0240003C014080B483B0B7
:1095180000AF78600B467B8013467B707B78002B0E
:1095280003D07A887B689A6103E07B881A047B6899
:109538009A6100BF0C37BD465DF8047B704780B464
:1095480083B000AF78600B467B807B685A697B8864
:109558001A407B889A4204D17B881A047B689A61F6
:1095680002E07A887B689A6100BF0C37BD465DF8D7
:10957800047B7047F0B58FB00AAF78607B68002B2A
:1095880001D1012354E07B681B68FB607B6893F87A
:10959800B932DBB2002B06D17B68002283F8B822EF
:1095A800786805F007FD7B68032283F8B922FB6819
:1095B800DB6B03F48073002B02D17B6800221A61F5
:1095C8007B681B68184603F0A5FD7B681B683B6039
:1095D8007E686D4606F110040FCC0FC50FCC0FC581
:1095E80094E8030085E80300331D0ECB386803F0C8
:1095F8001FFD7B681B680121184603F09CFD7B68F2
:109608001B683B607E686D4606F110040FCC0FC5E1
:109618000FCC0FC594E8030085E80300331D0ECB7B
:10962800386803F0AFFE7B68012283F8B922002373
:1096380018461437BD46F0BD90B589B004AF7860C0
:10964800084611461A460346FB700B46BB70134684
:109658007B707B6893F8B832012B01D102237FE03D
:109668007B68012283F8B822FA78796813469B0050
:109678001344DB000B443D3300221A70FA787968F2
:1096880013469B001344DB000B4438337A781A7076
:10969800FA78796813469B001344DB000B44403387
:1096A8003A8D1A80FA78796813469B001344DB00D8
:1096B8000B443933FA781A70FA78796813469B00A4
:1096C8001344DB000B443F3397F824201A70FA78D0
:1096D800BB7803F07F03D8B2796813469B00134424
:1096E800DB000B443A3302461A7097F90230002B1C
:1096F8000ADAFA78796813469B001344DB000B44B6
:109708003B3301221A7009E0FA78796813469B0006
:109718001344DB000B443B3300221A70FA78796853
:1097280013469B001344DB000B443C3397F820207E
:109738001A707B6818687C78BA78F9783B8D029340
:1097480097F82430019397F820300093234603F0CC
:1097580059FF0346FB737B68002283F8B822FB7B22
:1097680018461437BD4690BD80B584B000AF786008
:109778000B46FB700023FB737B6893F8B832012B10
:1097880001D102230FE07B68012283F8B8227B68AD
:109798001B68FA781146184604F095F97B68002290
:1097A80083F8B822FB7B18461037BD4680BD000001
:1097B80080B582B000AF7860084611461A46034665
:1097C800FB700B46BB7013467B70FA7879681346BA
:1097D8009B001344DB000B443B33BA781A70FA78C9
:1097E800796813469B001344DB000B443F337A78B7
:1097F8001A703B7C002B14D1FA78796813469B00C9
:109808001344DB000B44423303221A70FA78796858
:1098180013469B001344DB000B443D333A7F1A7018
:1098280009E0FA78796813469B001344DB000B447F
:10983800423302221A707B78032B00F2D68001A2F1
:1098480052F823F05D980008DD990008C9980008CF
:10985800539900083B7C012B40F0C980BB78002B52
:1098680040F0C5803B8B002B09D1FA787968134604
:109878009B001344DB000B44513301221A70FA7821
:10988800796813469B001344DB000B4451331B7863
:10989800002B0AD1FA78796813469B001344DB0041
:1098A8000B44423300221A70A1E0FA787968134613
:1098B8009B001344DB000B44423302221A7096E0EB
:1098C800BB78002B20D1FA78796813469B001344A3
:1098D800DB000B4451331B78002B0AD1FA787968E6
:1098E80013469B001344DB000B44423300221A70DA
:1098F8007EE0FA78796813469B001344DB000B443A
:10990800423302221A7073E0FA78796813469B0092
:109918001344DB000B4450331B78002B0AD1FA7830
:10992800796813469B001344DB000B444233002242
:109938001A705DE0FA78796813469B001344DB00DF
:109948000B44423302221A7052E0BB78002B20D11C
:10995800FA78796813469B001344DB000B445133B3
:109968001B78002B0AD1FA78796813469B001344B8
:10997800DB000B44423300221A7039E0FA78796828
:1099880013469B001344DB000B44423302221A7037
:109998002EE0FA78796813469B001344DB000B44E9
:1099A80050331B78002B0AD1FA78796813469B004C
:1099B8001344DB000B44423300221A7018E0FA7893
:1099C800796813469B001344DB000B4442330222A0
:1099D8001A700DE0FA78796813469B001344DB008F
:1099E8000B44423300221A7002E000BF00E000BFBF
:1099F800FA78796813469B001344DB000B44443320
:109A08007A691A60FA78398B786813469B00134490
:109A1800DB00034448331960FA78796813469B00E1
:109A28001344DB000B445C3300221A70FA7879681F
:109A380013469B001344DB000B444C3300221A608E
:109A4800FA78796813469B001344DB000B443933DA
:109A5800FA781A70FA78796813469B001344DB0089
:109A68000B445D3300221A707B681868FA78134635
:109A78009B001344DB0038337A68D1187B681B6974
:109A8800DBB21A4603F0C8FE034618460837BD463F
:109A980080BD00BF80B586B000AF78607B681B686A
:109AA8003B613B69FB607B681B68184603F027FC39
:109AB8000346012B40F0EF807B681B68184603F0D3
:109AC8000BFC0346002B00F0E5807B681B681846FA
:109AD80003F002FC034603F40013B3F5001F04D19E
:109AE8007B681B684FF400125A617B681B68184634
:109AF80003F0F2FB034603F48013B3F5801F04D18F
:109B08007B681B684FF480125A617B681B68184693
:109B180003F0E2FB034603F08063B3F1806F04D1E6
:109B28007B681B684FF080625A617B681B68184627
:109B380003F0D2FB034603F00203022B03D17B6838
:109B48001B6802225A617B681B68184603F0C4FB35
:109B5800034603F00053B3F1005F15D17B681B681F
:109B68004FF000525A61FB6803F588631B6803F0E5
:109B78000103002B08D1786805F09AFA7B681B6806
:109B88000121184603F0BAFC7B681B68184603F0ED
:109B9800A3FB034603F08073B3F1807F02D178689A
:109BA80001F04AF97B681B68184603F095FB0346E9
:109BB80003F00803082B06D1786805F05DFA7B6886
:109BC8001B6808225A617B681B68184603F084FBEF
:109BD800034603F00073B3F1007F38D17B681B683C
:109BE800184603F05FFFB86000237B6125E07B69BE
:109BF80003F00F03BA6822FA03F303F00103002B02
:109C080018D07B695A01FB68134403F5A0631B68ED
:109C180003F40043B3F5004F06D17B69DBB2194664
:109C2800786800F0B3F805E07B69DBB2194678681C
:109C380000F0E1FC7B6901337B617B689B687A6992
:109C48009A42D4D37B681B684FF000725A617B68D4
:109C58001B68184603F040FB034603F01003102B63
:109C680001D1012300E00023002B14D07B681B687E
:109C78009A697B681B6822F010029A61786801F083
:109C88002FF87B681B689A697B681B6842F0100292
:109C98009A6100E000BF1837BD4680BD80B582B02C
:109CA80000AF78607B6893F8B832012B01D10223AA
:109CB80013E07B68012283F8B8227B681B6818468A
:109CC80003F017FA7B681B680121184603F050FC63
:109CD8007B68002283F8B822002318460837BD465F
:109CE80080BD80B582B000AF78607B6893F8B832E9
:109CF800012B01D102230DE07B68012283F8B822F1
:109D08007B681B68184604F019F87B68002283F802
:109D1800B822002318460837BD4680BD80B483B0FA
:109D280000AF78600B46FB70FA78796813469B00A1
:109D38001344DB000B445C331B7818460C37BD46D4
:109D48005DF8047B704780B483B000AF78600B4641
:109D5800FB70FA78796813469B001344DB000B44C8
:109D68004C331B6818460C37BD465DF8047B7047BA
:109D780080B582B000AF78607B681B68184603F036
:109D880030FC034618460837BD4680BD80B586B00E
:109D980000AF78600B46FB707B681B687B617B6952
:109DA8003B61FB78FB60FB685A013B69134403F590
:109DB800A0639B6803F00403042B19D1FB685A01C4
:109DC8003B69134403F5A0631A4604239360FB68B8
:109DD8005A013B69134403F5A063DB68FA68510133
:109DE8003A690A4402F5A06243F00203D360CEE068
:109DF800FB685A013B69134403F5A0639B6803F4AD
:109E08008073B3F5807F2CD1FB685A013B691344FA
:109E180003F5A0631A464FF4807393607968FA6873
:109E280013469B001344DB000B445D3307221A7072
:109E3800FB685A013B69134403F5A063DB68FA68C1
:109E480051013A690A4402F5A06243F00203D36063
:109E58007B681B68FA68D2B21146184603F033FED5
:109E680095E0FB685A013B69134403F5A0639B68BE
:109E780003F02003202B09D1FB685A013B691344E6
:109E880003F5A0631A462023936080E0FB685A011B
:109E98003B69134403F5A0639B6803F00803082B90
:109EA80034D1FB685A013B69134403F5A063DB68AE
:109EB800FA6851013A690A4402F5A06243F00203C4
:109EC800D3607968FA6813469B001344DB000B449F
:109ED8005D3305221A70FB685A013B69134403F588
:109EE800A0631A4610239360FB685A013B69134428
:109EF80003F5A0631A46082393607B681B68FA6819
:109F0800D2B21146184603F0DEFD40E0FB685A0164
:109F18003B69134403F5A0639B6803F48063B3F5BE
:109F2800806F34D1FB685A013B69134403F5A06381
:109F3800DB68FA6851013A690A4402F5A06243F005
:109F48000203D3607B681B68FA68D2B211461846D0
:109F580003F0B9FDFB685A013B69134403F5A0639C
:109F68001A46102393607968FA6813469B001344D5
:109F7800DB000B445D3308221A70FB685A013B6909
:109F8800134403F5A0631A464FF480639360FB689B
:109F98005A013B69134403F5A0639B6803F40073FB
:109FA800B3F5007F22D1FB685A013B69134403F5DE
:109FB800A063DB68FA6851013A690A4402F5A062B5
:109FC80043F00203D3607B681B68FA68D2B211467B
:109FD800184603F078FDFB685A013B69134403F502
:109FE800A0631A464FF40073936000E3FB685A01BC
:109FF8003B69134403F5A0639B6803F00103012B3D
:10A0080040F0FD807B681B69002B1BD07968FA68DB
:10A0180013469B001344DB000B4448331A68FB6863
:10A0280059013B690B4403F5A0631B69C3F3120391
:10A03800D11A7868FA6813469B001344DB0003447E
:10A048004C3319607968FA6813469B001344DB00A7
:10A058000B445D3301221A707968FA6813469B0035
:10A068001344DB000B44583300221A60FB685A0182
:10A078003B69134403F5A0631A460123936079688A
:10A08800FA6813469B001344DB000B443F331B78EC
:10A09800002B0AD07968FA6813469B001344DB004A
:10A0A8000B443F331B78022B21D1FB685A013B69D3
:10A0B800134403F5A063DB68FA6851013A690A445E
:10A0C80002F5A06243F00203D3607B681B68FA685C
:10A0D800D2B21146184603F0F6FCFB685A013B69F8
:10A0E800134403F5A0631A461023936070E079685F
:10A0F800FA6813469B001344DB000B443F331B787C
:10A10800032B2AD1FB685A013B69134403F5A0636A
:10A118001B68FA6851013A690A4402F5A06243F0E3
:10A12800005313607968FA6813469B001344DB00F8
:10A138000B445C3301221A70FB68D8B27968FA685C
:10A1480013469B001344DB000B445C331B781A4610
:10A158000146786804F0BAFF3AE07968FA6813466D
:10A168009B001344DB000B443F331B78012B2FD19A
:10A178007968FA6813469B001344DB000B445C3390
:10A1880001221A707968FA6813469B001344DB00B1
:10A198000B4450331B7883F00103D8B27968FA680E
:10A1A80013469B001344DB000B44503302461A70DD
:10A1B800FB68D8B27968FA6813469B001344DB0041
:10A1C8000B445C331B781A460146786804F07EFF1E
:10A1D8007968FA6813469B001344DB000B4450333C
:10A1E8001B7883F00103D8B27968FA6813469B009C
:10A1F8001344DB000B44503302461A70F7E1FB6846
:10A208005A013B69134403F5A0639B6803F00203FA
:10A21800022B40F01A81FB685A013B69134403F58D
:10A22800A063DB68FA6851013A690A4402F5A06242
:10A2380023F00203D3607968FA6813469B0013443D
:10A24800DB000B445D331B78012B0AD17968FA686F
:10A2580013469B001344DB000B445C3301221A7045
:10A26800D9E07968FA6813469B001344DB000B4475
:10A278005D331B78052B0AD17968FA6813469B0071
:10A288001344DB000B445C3305221A70C3E0796881
:10A29800FA6813469B001344DB000B445D331B78BC
:10A2A800062B0AD07968FA6813469B001344DB0032
:10A2B8000B445D331B78082B56D17968FA6813462E
:10A2C8009B001344DB000B4458331B68591C786807
:10A2D800FA6813469B001344DB00034458331960A3
:10A2E8007968FA6813469B001344DB000B44583323
:10A2F8001B68032B14D97968FA6813469B0013442A
:10A30800DB000B44583300221A607968FA68134658
:10A318009B001344DB000B445C3304221A7009E0F1
:10A328007968FA6813469B001344DB000B445C33DE
:10A3380002221A70FB685A013B69134403F5A063B3
:10A348001B68BB60BB6823F08043BB60BB6843F0FD
:10A358000043BB60FB685A013B69134403F5A063E3
:10A368001A46BB68136056E07968FA6813469B0082
:10A378001344DB000B445D331B78032B23D179682E
:10A38800FA6813469B001344DB000B445C3302223B
:10A398001A70FB685A013B69134403F5A0631B68F4
:10A3A800BB60BB6823F08043BB60BB6843F00043DD
:10A3B800BB60FB685A013B69134403F5A0631A4666
:10A3C800BB68136027E07968FA6813469B0013445A
:10A3D800DB000B445D331B78072B1CD17968FA68C6
:10A3E80013469B001344DB000B4458331B68591C6D
:10A3F8007868FA6813469B001344DB00034458331B
:10A4080019607968FA6813469B001344DB000B4413
:10A418005C3304221A70FB685A013B69134403F544
:10A42800A0631A4602239360FB68D8B27968FA6879
:10A4380013469B001344DB000B445C331B781A461D
:10A448000146786804F042FED1E0FB685A013B6996
:10A45800134403F5A0639B6803F08003802B3ED16F
:10A46800FB685A013B69134403F5A063DB68FA688B
:10A4780051013A690A4402F5A06243F00203D3602D
:10A488007968FA6813469B001344DB000B44583381
:10A498001B68591C7868FA6813469B001344DB0054
:10A4A8000344583319607968FA6813469B001344CB
:10A4B800DB000B445D3306221A707B681B68FA6860
:10A4C800D2B21146184603F0FEFAFB685A013B69FE
:10A4D800134403F5A0631A468023936087E0FB6862
:10A4E8005A013B69134403F5A0639B6803F010030A
:10A4F800102B7CD17968FA6813469B001344DB0063
:10A508000B443F331B78032B22D17968FA68134632
:10A518009B001344DB000B44583300221A60FB688D
:10A528005A013B69134403F5A063DB68FA685101DB
:10A538003A690A4402F5A06243F00203D3607B68DB
:10A548001B68FA68D2B21146184603F0BCFA45E017
:10A558007968FA6813469B001344DB000B443F33C9
:10A568001B78002B0AD07968FA6813469B001344BD
:10A57800DB000B443F331B78022B2FD17968FA6834
:10A5880013469B001344DB000B44583300221A6027
:10A598007B681B69002B21D17968FA6813469B00F8
:10A5A8001344DB000B445D3303221A70FB685A0125
:10A5B8003B69134403F5A063DB68FA6851013A6903
:10A5C8000A4402F5A06243F00203D3607B681B686B
:10A5D800FA68D2B21146184603F075FAFB685A01B8
:10A5E8003B69134403F5A0631A461023936000BF28
:10A5F8001837BD4680BD80B586B000AF78600B4681
:10A60800FB707B681B687B617B693B61FB78FB6047
:10A61800FB685A013B69134403F5A0639B6803F088
:10A628000403042B19D1FB685A013B69134403F551
:10A63800A0631A4604239360FB685A013B691344DC
:10A6480003F5A063DB68FA6851013A690A4402F528
:10A65800A06243F00203D3603EE3FB685A013B6902
:10A66800134403F5A0639B6803F02003202B41D11A
:10A67800FB685A013B69134403F5A0631A4620237B
:10A6880093607968FA6813469B001344DB000B4417
:10A698003D331B78012B40F01F837968FA68134615
:10A6A8009B001344DB000B443D3300221A70796889
:10A6B800FA6813469B001344DB000B445C33022208
:10A6C8001A70FB685A013B69134403F5A063DB6801
:10A6D800FA6851013A690A4402F5A06243F002039C
:10A6E800D3607B681B68FA68D2B21146184603F03B
:10A6F800EAF9F1E2FB685A013B69134403F5A063E8
:10A708009B6803F04003402B3FD17968FA681346F1
:10A718009B001344DB000B445D3304221A707968F4
:10A72800FA6813469B001344DB000B443D330122B7
:10A738001A707968FA6813469B001344DB000B44CF
:10A74800583300221A60FB685A013B69134403F529
:10A75800A063DB68FA6851013A690A4402F5A0620D
:10A7680043F00203D3607B681B68FA68D2B21146D3
:10A77800184603F0A8F9FB685A013B69134403F52E
:10A78800A0631A4640239360A6E2FB685A013B691E
:10A79800134403F5A0639B6803F40073B3F5007FCB
:10A7A80022D1FB685A013B69134403F5A063DB68B7
:10A7B800FA6851013A690A4402F5A06243F00203BB
:10A7C800D3607B681B68FA68D2B21146184603F05A
:10A7D8007AF9FB685A013B69134403F5A0631A46EA
:10A7E8004FF40073936077E2FB685A013B691344A6
:10A7F80003F5A0639B6803F00103012B35D1796849
:10A80800FA6813469B001344DB000B4458330022BC
:10A818001A60FB685A013B69134403F5A063DB68BF
:10A82800FA6851013A690A4402F5A06243F002034A
:10A83800D3607B681B68FA68D2B21146184603F0E9
:10A8480042F9FB685A013B69134403F5A0631A46B1
:10A85800012393607968FA6813469B001344DB0070
:10A868000B445D3301221A7036E2FB685A013B69DA
:10A87800134403F5A0639B6803F00803082B2BD14E
:10A88800FB685A013B69134403F5A0631A46082381
:10A898009360FB685A013B69134403F5A063DB68C6
:10A8A800FA6851013A690A4402F5A06243F00203CA
:10A8B800D3607B681B68FA68D2B21146184603F069
:10A8C80002F97968FA6813469B001344DB000B44CD
:10A8D8005D3305221A70FFE1FB685A013B69134496
:10A8E80003F5A0639B6803F01003102B55D179681A
:10A8F800FA6813469B001344DB000B4458330022CC
:10A908001A607968FA6813469B001344DB000B440D
:10A918005D3303221A707968FA6813469B00134462
:10A92800DB000B443D331B78002B14D17968FA689F
:10A9380013469B001344DB000B443C331B78002B6D
:10A9480009D17968FA6813469B001344DB000B446D
:10A958003D3301221A70FB685A013B69134403F521
:10A96800A063DB68FA6851013A690A4402F5A062FB
:10A9780043F00203D3607B681B68FA68D2B21146C1
:10A98800184603F0A0F8FB685A013B69134403F525
:10A99800A0631A46102393609EE1FB685A013B6945
:10A9A800134403F5A0639B6803F08003802B2BD12D
:10A9B800FB685A013B69134403F5A063DB68FA6836
:10A9C80051013A690A4402F5A06243F00203D360D8
:10A9D8007B681B68FA68D2B21146184603F073F810
:10A9E8007968FA6813469B001344DB000B445D3317
:10A9F80006221A70FB685A013B69134403F5A063E9
:10AA08001A468023936067E1FB685A013B69134447
:10AA180003F5A0639B6803F48063B3F5806F35D1B9
:10AA2800FB685A013B69134403F5A063DB68FA68C5
:10AA380051013A690A4402F5A06243F00203D36067
:10AA48007B681B68FA68D2B21146184603F03BF8D7
:10AA5800FB685A013B69134403F5A0631A461023A7
:10AA68009360FB685A013B69134403F5A0631A46D7
:10AA78004FF4806393607968FA6813469B00134427
:10AA8800DB000B445D3308221A7025E1FB685A018C
:10AA98003B69134403F5A0639B6803F00203022B90
:10AAA80040F01A81FB685A013B69134403F5A0631F
:10AAB800DB68FA6851013A690A4402F5A06223F09A
:10AAC8000203D3607968FA6813469B001344DB00DD
:10AAD8000B445D331B78012B37D17968FA6813462C
:10AAE8009B001344DB000B445C3301221A70796825
:10AAF800FA6813469B001344DB000B443F331B7872
:10AB0800022B0BD07968FA6813469B001344DB00CC
:10AB18000B443F331B78032B40F0C5807968FA68F3
:10AB280013469B001344DB000B4451331B7883F01E
:10AB38000103D8B27968FA6813469B001344DB0016
:10AB48000B44513302461A70ADE07968FA6813462F
:10AB58009B001344DB000B445D331B78032B0AD1A5
:10AB68007968FA6813469B001344DB000B445C3396
:10AB780002221A7097E07968FA6813469B0013441A
:10AB8800DB000B445D331B78042B0AD17968FA6823
:10AB980013469B001344DB000B445C3302221A70FB
:10ABA80081E07968FA6813469B001344DB000B4484
:10ABB8005D331B78052B0AD17968FA6813469B0028
:10ABC8001344DB000B445C3305221A706BE0796890
:10ABD800FA6813469B001344DB000B445D331B7873
:10ABE800062B0AD07968FA6813469B001344DB00E9
:10ABF8000B445D331B78082B55D17968FA681346E6
:10AC08009B001344DB000B4458331B68591C7868BD
:10AC1800FA6813469B001344DB0003445833196059
:10AC28007968FA6813469B001344DB000B445833D9
:10AC38001B68032B14D97968FA6813469B001344E0
:10AC4800DB000B44583300221A607968FA6813460F
:10AC58009B001344DB000B445C3304221A7009E0A8
:10AC68007968FA6813469B001344DB000B445C3395
:10AC780002221A70FB685A013B69134403F5A0636A
:10AC88001B68BB60BB6823F08043BB60BB6843F0B4
:10AC98000043BB60FB685A013B69134403F5A0639A
:10ACA8001A46BB681360FB685A013B69134403F5F5
:10ACB800A0631A4602239360FB68D8B27968FA68E1
:10ACC80013469B001344DB000B445C331B781A4685
:10ACD8000146786804F0FAF900BF1837BD4680BD10
:10ACE80080B58AB000AF78607B681B687B627B6A3E
:10ACF8003B627B681B681B6AFB61FB6903F00F03FF
:10AD0800BB61FB695B0C03F00F037B61FB691B09EB
:10AD1800C3F30A033B617B69022B03D0052B00F0C8
:10AD2800828083E03B69002B7FD07968BA6913463B
:10AD38009B001344DB000B4444331B68002B74D086
:10AD48007B6818687968BA6913469B001344DB006E
:10AD58000B4444331B683A6992B2194602F093FADD
:10AD68007968BA6913469B001344DB000B444433EB
:10AD78001A683B69D1187868BA6913469B0013446E
:10AD8800DB000344443319607968BA6913469B00B1
:10AD98001344DB000B444C331A683B69D1187868BC
:10ADA800BA6913469B001344DB0003444C33196013
:10ADB800BB695A013B6A134403F5A0631A691D4B2A
:10ADC8001340002B31D0BB695A013B6A134403F589
:10ADD800A0631B68FB60FB6823F08043FB60FB6893
:10ADE80043F00043FB60BB695A013B6A134403F517
:10ADF800A0631A46FB6813607968BA6913469B001A
:10AE08001344DB000B4450331B7883F00103D8B2A2
:10AE18007968BA6913469B001344DB000B4450332E
:10AE280002461A7001E000BF00E000BF00BF2837EB
:10AE3800BD4680BD0000F81F80B586B000AF7860C1
:10AE48007B681B687B617B693B613B6903F58863B1
:10AE58001B68FB603B6903F588631B68BB60BB68C4
:10AE680023F02E03BB60FB6803F00203022B0BD117
:10AE7800FB6803F00103012B02D1786804F00AF99A
:10AE8800BB6843F00203BB60FB6803F00803082BB0
:10AE980032D1BB6843F00803BB60FB6803F00403CE
:10AEA800042B26D17B689B69022B13D1FB6803F422
:10AEB800C023B3F5802F06D17B681B680221184692
:10AEC80002F01CFB11E07B681B680121184602F0A8
:10AED80015FB0AE07B68DB68012B06D13B6903F5AB
:10AEE80080631A464EF660235360786804F0FCF8D5
:10AEF80002E0786804F006F9FB6803F02003202BD1
:10AF080003D1BB6843F02003BB603B6903F588634A
:10AF18001A46BB68136000BF1837BD4680BD0000E5
:10AF280080B584B000AF78607B68002B01D1012325
:10AF38001FE17B6893F83D30DBB2002B06D17B68BC
:10AF4800002283F83C207868FDF796FD7B68242270
:10AF580083F83D207B681B681A687B681B6822F0B1
:10AF680001021A607B681B681A687B681B6842F4D8
:10AF780000421A607B681B681A687B681B6822F4A9
:10AF880000421A6001F0DEF9F8607B685B687B4A72
:10AF9800934207D8FB687A4A934294BF012300235F
:10AFA800DBB206E0FB68774A934294BF0123002393
:10AFB800DBB2002B01D00123DBE0FB68724AA2FB65
:10AFC80003239B0CBB607B681B685B6823F03F0115
:10AFD8007B681B68BA680A435A607B681B681B6AEF
:10AFE80023F03F017B685B68644A934202D8BB68E0
:10AFF800013309E0BB684FF4967202FB03F3634A1E
:10B00800A2FB03239B0901337A6812680B4313627E
:10B018007B681B68DB6923F44F4222F0FF027B68E0
:10B028005B6856498B420DD8FB68591E7B685B6884
:10B038005B00B1FBF3F30133C3F30B03042B38BFFD
:10B0480004234FE07B689B68002B11D1FB68581ED6
:10B058007B6859680B465B000B44B0FBF3F3013384
:10B06800C3F30B03002B0CBF01230023DBB212E058
:10B07800FB68581E7B6859680B469B000B44990077
:10B088000B44B0FBF3F30133C3F30B03002B0CBFEA
:10B0980001230023DBB2002B01D0012322E07B68CF
:10B0A8009B68002B0ED1FB68581E7B6859680B46BD
:10B0B8005B000B44B0FBF3F30133C3F30B0343F41E
:10B0C80000430FE0FB68581E7B6859680B469B00DD
:10B0D8000B4499000B44B0FBF3F30133C3F30B03A8
:10B0E80043F44043796809681343CB617B681B6864
:10B0F8001B6823F0C0017B68DA697B681B6A1A4306
:10B108007B681B680A431A607B681B689B6823F48A
:10B11800034323F0FF037A6811697A68D268114300
:10B128007A6812680B4393607B681B68DB6823F0BE
:10B13800FF017B685A697B689B691A437B681B68B7
:10B148000A43DA607B681B681A687B681B6842F0F0
:10B1580001021A607B6800221A647B68202283F847
:10B168003D207B6800221A637B68002283F83E201A
:10B17800002318461037BD4680BD00BFA0860100D9
:10B188007F841E00FF083D0083DE1B43D34D621001
:10B1980080B588B000AF78607B68002B01D10123AF
:10B1A80028E17B6893F84130DBB2002B09D17B683A
:10B1B800002283F840207B68904A5A637868FDF73C
:10B1C800A3FC7B68022283F841207B681B68DB694B
:10B1D8007A68126823F47B6323F00F03D3617B68DA
:10B1E8001B6802221A627B685B69022B60D07B684D
:10B1F800DB68002B02D110237B6101E020237B61F7
:10B208007B689B68202B02D87B695B007B610120EF
:10B2180001F0A2F9F8607B681B69B3F5007F25D1BE
:10B228007B68DB68002B10D07B699B00FA68B2FB57
:10B23800F3F213469B0013445B001A467B685B6974
:10B24800B2FBF3F305333B611FE07B69DB00FA686F
:10B25800B2FBF3F213469B0013445B001A467B686B
:10B268005B69B2FBF3F305333B610EE0FA687B6977
:10B27800B2FBF3F213469B0013445B001A467B684B
:10B288005B69B2FBF3F305333B613B695C4AA2FBA4
:10B298000323DB083B613B6903F00103BB613A69A7
:10B2A800BB69D31A5B08FB61BB691B02BB6103E086
:10B2B8000223FB610023BB61FB69012B02D9FB69F7
:10B2C800FF2B07D97B685B6C43F010027B685A64DC
:10B2D80001238FE07B681A69BB6942EA03017B6836
:10B2E8001B68FA690A431A627B681B68DB6923F4E6
:10B2F8007B6323F00F037A6851687A689268114378
:10B308007A68D26811437A6892690A431A437B685B
:10B318001B6842F40062DA617B681B6A012B61D109
:10B328007B68384A5A637B681B68374A934201D165
:10B33800364B01E04FF04023DB697A6812683249E6
:10B348008A4201D1314A01E04FF0402223F47B6365
:10B3580023F00F03D3617B681B682B4A934201D10A
:10B368002A4B01E04FF0402302221A627B681B68D7
:10B37800254A934201D1254B01E04FF04023DB6978
:10B388007B817B685B68B3F5007F03D07B685B6873
:10B39800002B03D14FF480733B6101E000233B6134
:10B3A8003B699AB27B689B6899B27B68DB6898B204
:10B3B8007B689B699BB203439BB20B439BB21343CD
:10B3C8009AB27B8913439BB243F400637B817B6809
:10B3D8001B680D4A934201D10C4B01E04FF040230A
:10B3E8007A89DA617B6800225A647B68012283F8D3
:10B3F8004120002318462037BD4680BD0FB5000800
:10B40800CDCCCCCC25B60008003800400034004034
:10B4180080B483B000AF786000BF0C37BD465DF8DC
:10B42800047B704780B483B000AF786000BF0C37EE
:10B43800BD465DF8047B704780B483B000AF786088
:10B4480000BF0C37BD465DF8047B704780B582B0FD
:10B4580000AF78607B685B6A1A887B681B68DA6073
:10B468007B685B6A9A1C7B685A627B685B8D9BB2BF
:10B47800013B9AB27B685A857B685B8D9BB2002B37
:10B488000ED17B681B685A687B681B6822F0A00293
:10B498005A607B68012283F841207868FFF7B8FF7B
:10B4A80000BF0837BD4680BD80B582B000AF786068
:10B4B8007B681B68DA687B68DB6A92B21A807B68F3
:10B4C800DB6A9A1C7B68DA627B685B8E9BB2013B05
:10B4D8009AB27B685A867B685B8E9BB2002B0ED132
:10B4E8007B681B685A687B681B6822F060025A6098
:10B4F8007B68012283F841207868FFF793FF00BF3B
:10B508000837BD4680BD80B586B000AF78607B68DF
:10B518001B689B687B617B6893F84130DBB2042B26
:10B528003AD17B6903F00103012B09D17B681B68C1
:10B538005B6803F04003402B02D17868FFF7B4FF43
:10B548007B6903F04003402B26D17B681B685B684E
:10B5580003F02003202B1FD17B681B685A687B6887
:10B568001B6822F060025A6000233B617B681B68FD
:10B57800DB683B617B681B689B683B613B697B6858
:10B58800012283F841207B685B6C43F002027B68F0
:10B598005A647868FFF750FF7B6893F84130DBB254
:10B5A800032B36D17B6903F00203022B09D17B6898
:10B5B8001B685B6803F08003802B02D17868FFF773
:10B5C80045FF7B6903F00803082B22D17B681B68C1
:10B5D8005B6803F02003202B1BD17B681B685A682B
:10B5E8007B681B6822F0A0025A600023FB607B681E
:10B5F8001B689B68FB60FB687B68012283F841201D
:10B608007B685B6C43F004027B685A647868FFF7D8
:10B6180013FF00BF1837BD4680BD000080B588B055
:10B6280000AF78607B681B689B68FB617B681B6860
:10B63800A24A934201D1A24B01E04FF040239B68FC
:10B64800BB617B681B685B687B617B681B689B4A86
:10B65800934201D19A4B01E04FF040235B683B6174
:10B668007B685B68B3F5007F04D07B685B68002B60
:10B6780040F09980FB6903F00203022B07D17B6934
:10B6880003F08003002B02D0786800F025F9BB692D
:10B6980003F00103012B07D13B6903F04003002BA2
:10B6A80002D0786800F0C8F9BB6903F04003402B6A
:10B6B8003AD13B6903F02003002B35D07B681B6827
:10B6C8007E4A934201D17E4B01E04FF040235A68F5
:10B6D8007B681B6879498B4201D1794B01E04FF0B7
:10B6E800402322F060025A607B681B685A687B68B6
:10B6F8001B6822F0A0025A600023FB607B681B686D
:10B70800DB68FB607B681B689B68FB60FB687B6889
:10B71800012283F841207B685B6C43F002027B685E
:10B728005A647868FFF788FEFB6903F00803082B62
:10B7380040F0BE807B6903F02003002B00F0B88046
:10B748007B681B685A687B681B6822F0A0025A60F5
:10B758007B681B68594A934201D1594B01E04FF06D
:10B7680040235A687B681B6854498B4201D1544B6B
:10B7780001E04FF0402322F060025A600023BB60D2
:10B788007B681B689B68BB60BB687B68012283F889
:10B7980041207B685B6C43F004027B685A647868DC
:10B7A800FFF74AFE84E0BB6903F00203022B07D1CE
:10B7B8003B6903F08003002B02D0786800F0BEF8E4
:10B7C800FB6903F00103012B07D17B6903F04003F8
:10B7D800002B02D0786800F0FDF8FB6903F0400305
:10B7E800402B2FD17B6903F02003002B2AD07B68E4
:10B7F8001B685A687B681B6822F060025A607B6885
:10B808001B682E4A934201D12D4B01E04FF0402393
:10B818005A687B681B6829498B4201D1284B01E093
:10B828004FF0402322F0A0025A607B68012283F87F
:10B8380041207B685B6C43F002027B685A6478683D
:10B84800FFF7FAFDBB6903F00803082B31D13B6908
:10B8580003F02003002B2CD07B681B68174A934207
:10B8680001D1174B01E04FF040235A687B681B68F1
:10B8780012498B4201D1124B01E04FF0402322F0D4
:10B88800A0025A607B681B685A687B681B6822F0B4
:10B8980060025A607B68012283F841207B685B6CF8
:10B8A80043F004027B685A647868FFF7C5FD00E03E
:10B8B80000BF00BF2037BD4680BD00BF0038004034
:10B8C8000034004080B483B000AF786000BF0C370C
:10B8D800BD465DF8047B704780B582B000AF7860E4
:10B8E8007B685B6A991C7A6851621A887B681B6856
:10B8F800DA607B685B8D9BB2013B9AB27B685A85A4
:10B908007B685B8D9BB2002B13D17B681B685A68E0
:10B918007B681B6822F0A0025A607B685B8E9BB232
:10B92800002B06D17B68012283F841207868FFF755
:10B93800C9FF00BF0837BD4680BD000080B582B092
:10B9480000AF78607B685B6A991C7A6851621988D5
:10B958007B681B681D4A934201D11D4B01E04FF0E3
:10B9680040230A46DA607B685B8D9BB2013B9AB242
:10B978007B685A857B685B8D9BB2002B21D17B68E5
:10B988001B68124A934201D1114B01E04FF040234A
:10B998005A687B681B680D498B4201D10C4B01E04A
:10B9A8004FF0402322F0A0025A607B685B8E9BB266
:10B9B800002B06D17B68012283F841207868FFF7C5
:10B9C80081FF00BF0837BD4680BD00BF003800407A
:10B9D8000034004080B582B000AF78607B681B6897
:10B9E800D8687B68DB6A991C7A68D16282B21A804F
:10B9F8007B685B8E9BB2013B9AB27B685A867B68F8
:10BA08005B8E9BB2002B13D17B681B685A687B68DE
:10BA18001B6822F060025A607B685B8D9BB2002B2A
:10BA280006D17B68012283F841207868FFF74AFF36
:10BA380000BF0837BD4680BD80B582B000AF7860D2
:10BA48007B681B68204A934201D1204B01E04FF0EC
:10BA58004023D8687B68DB6A991C7A68D16282B215
:10BA68001A807B685B8E9BB2013B9AB27B685A86D0
:10BA78007B685B8E9BB2002B21D17B681B68124AC6
:10BA8800934201D1114B01E04FF040235A687B6883
:10BA98001B680D498B4201D10C4B01E04FF040234C
:10BAA80022F060025A607B685B8D9BB2002B06D146
:10BAB8007B68012283F841207868FFF703FF00BF05
:10BAC8000837BD4680BD00BF003800400034004044
:10BAD80080B586B000AF78607B68002B01D1012368
:10BAE8005BE27B681B6803F00103002B75D0A34B56
:10BAF8009B6803F00C03042B0CD0A04B9B6803F04D
:10BB08000C03082B12D19D4B5B6803F48003B3F53B
:10BB1800800F0BD1994B1B6803F40033002B5BD0CB
:10BB28007B685B68002B57D1012336E27B685B6832
:10BB3800B3F5803F06D1914B1B68904A43F480339C
:10BB480013601DE07B685B68B3F5A02F0CD18B4BAD
:10BB58001B688A4A43F480231360884B1B68874A12
:10BB680043F4803313600BE0844B1B68834A23F44F
:10BB780080331360814B1B68804A23F48023136051
:10BB88007B685B68002B13D0FDF7CAF9386108E0C1
:10BB9800FDF7C6F902463B69D31A642B01D9032382
:10BBA800FBE1764B1B6803F40033002BF0D014E064
:10BBB800FDF7B6F9386108E0FDF7B2F902463B69CE
:10BBC800D31A642B01D90323E7E16C4B1B6803F4F8
:10BBD8000033002BF0D100E000BF7B681B6803F046
:10BBE8000203002B63D0654B9B6803F00C03002B0A
:10BBF8000BD0624B9B6803F00C03082B1CD15F4BE6
:10BC08005B6803F48003002B16D15C4B1B6803F0C0
:10BC18000203002B05D07B68DB68012B01D00123D0
:10BC2800BBE1564B1B6823F0F8027B681B69DB00FD
:10BC3800524913430B603AE07B68DB68002B20D045
:10BC48004F4B01221A60FDF76BF9386108E0FDF7E8
:10BC580067F902463B69D31A022B01D903239CE1F9
:10BC6800464B1B6803F00203002BF0D0434B1B68C4
:10BC780023F0F8027B681B69DB00404913430B6023
:10BC880015E03F4B00221A60FDF74AF9386108E0D9
:10BC9800FDF746F902463B69D31A022B01D9032363
:10BCA8007BE1364B1B6803F00203002BF0D17B6865
:10BCB8001B6803F00803002B30D07B685B69002BFE
:10BCC80016D0304B01221A60FDF72AF9386108E0D6
:10BCD800FDF726F902463B69D31A022B01D9032343
:10BCE8005BE1264B5B6F03F00203002BF0D015E0FD
:10BCF800244B00221A60FDF713F9386108E0FDF7BC
:10BD08000FF902463B69D31A022B01D9032344E1F8
:10BD18001A4B5B6F03F00203002BF0D17B681B68A2
:10BD280003F00403002B00F0A0800023FB75134BE5
:10BD38001B6C03F08053002B0FD10023BB600F4B0B
:10BD48001B6C0E4A43F0805313640C4B1B6C03F0BE
:10BD58008053BB60BB680123FB750B4B1B6803F466
:10BD68008073002B21D1084B1B68074A43F480736A
:10BD78001360FDF7D5F8386111E000BF00380240C4
:10BD880000004742800E474200700040FDF7C8F8A7
:10BD980002463B69D31A022B01D90323FDE0814BEC
:10BDA8001B6803F48073002BF0D07B689B68012B21
:10BDB80006D17D4B1B6F7C4A43F0010313671CE0DF
:10BDC8007B689B68052B0CD1774B1B6F764A43F039
:10BDD80004031367744B1B6F734A43F00103136723
:10BDE8000BE0714B1B6F704A23F0010313676E4B16
:10BDF8001B6F6D4A23F0040313677B689B68002B55
:10BE080015D0FDF78DF838610AE0FDF789F802468C
:10BE18003B69D31A41F28832934201D90323BCE02B
:10BE2800614B1B6F03F00203002BEED014E0FDF70B
:10BE380077F838610AE0FDF773F802463B69D31AD0
:10BE480041F28832934201D90323A6E0564B1B6F77
:10BE580003F00203002BEED1FB7D012B05D1524BE1
:10BE68001B6C514A23F0805313647B689B69002B39
:10BE780000F092804C4B9B6803F00C03082B5CD0BD
:10BE88007B689B69022B41D1484B00221A60FDF761
:10BE980047F8386108E0FDF743F802463B69D31AD2
:10BEA800022B01D9032378E03F4B1B6803F0007392
:10BEB800002BF0D17B68DA697B681B6A1A437B68C0
:10BEC8005B6A9B011A437B689B6A5B08013B1B0406
:10BED8001A437B68DB6A1B06334913434B60334BB9
:10BEE80001221A60FDF71CF8386108E0FDF718F820
:10BEF80002463B69D31A022B01D903234DE02A4B92
:10BF08001B6803F00073002BF0D045E0274B00229C
:10BF18001A60FDF705F8386108E0FDF701F80246F8
:10BF28003B69D31A022B01D9032336E01E4B1B6849
:10BF380003F00073002BF0D12EE07B689B69012B86
:10BF480001D1012329E0184B5B68FB60FB6803F40F
:10BF580080027B68DB699A421CD1FB6803F03F02D0
:10BF68007B681B6A9A4215D1FA6847F6C07313407A
:10BF78007A68526A93420DD1FB6803F440327B68B9
:10BF88009B6A9A4206D1FB6803F070627B68DB6AA1
:10BF98009A4201D0012300E0002318461837BD4615
:10BFA80080BD00BF0070004000380240600047427A
:10BFB80080B584B000AF786039607B68002B01D110
:10BFC8000123CCE0684B1B6803F00F033A689A42E0
:10BFD8000CD9654B3A68D2B21A70634B1B6803F0F0
:10BFE8000F033A689A4201D00123B8E07B681B68C6
:10BFF80003F00203002B20D07B681B6803F00403C6
:10C00800002B05D0594B9B68584A43F4E053936082
:10C018007B681B6803F00803002B05D0534B9B6813
:10C02800524A43F460439360504B9B6823F0F002FC
:10C038007B689B684D4913438B607B681B6803F0E2
:10C048000103002B44D07B685B68012B07D1474B69
:10C058001B6803F40033002B19D101237FE07B68B0
:10C068005B68022B03D07B685B68032B07D13F4BCF
:10C078001B6803F00073002B09D101236FE03B4BD1
:10C088001B6803F00203002B01D1012367E0374B43
:10C098009B6823F003027B685B68344913438B6019
:10C0A800FCF73EFFF8600AE0FCF73AFF0246FB683F
:10C0B800D31A41F28832934201D903234FE02B4B24
:10C0C8009B6803F00C027B685B689B009A42EBD18B
:10C0D800254B1B6803F00F033A689A420CD2224B97
:10C0E8003A68D2B21A70204B1B6803F00F033A6803
:10C0F8009A4201D0012332E07B681B6803F00403F5
:10C10800002B08D0194B9B6823F4E0527B68DB684E
:10C11800164913438B607B681B6803F00803002BE8
:10C1280009D0124B9B6823F460427B681B69DB00D3
:10C138000E4913438B6000F021F801460B4B9B68B6
:10C148001B0903F00F030A4AD35C21FA03F3094AD7
:10C158001360094B1B681846FCF79EFE002318461F
:10C168001037BD4680BD00BF003C02400038024089
:10C17800B8F600080000002004000020F0B585B0E3
:10C1880000AF00237B600023FB6000233B6000239B
:10C19800BB60634B9B6803F00C03042B07D0082B90
:10C1A80008D0002B40F0B4805E4BBB60B3E05E4B20
:10C1B800BB60B0E05A4B5B6803F03F037B60584BB1
:10C1C8005B6803F48003002B4AD0554B5B689B09DE
:10C1D8004FF0000440F2FF114FF0000203EA01059E
:10C1E80004EA0206294632464FF000034FF00004E5
:10C1F800540144EAD1644B0119462246491B62EBBB
:10C2080006024FF000034FF00004940144EA9164E1
:10C218008B015B1A64EB02044FF000014FF000023F
:10C22800E20042EA5372D9000B4614465B1944EB0C
:10C2380006044FF000014FF00002620242EAD352B6
:10C2480059020B461446184621467B684FF00004F5
:10C258001A462346FBF7B4FF03460C46FB6049E049
:10C268002F4B5B689B094FF0000440F2FF114FF021
:10C27800000203EA010504EA0206294632464FF0A5
:10C2880000034FF00004540144EAD1644B011946FD
:10C298002246491B62EB06024FF000034FF00004F0
:10C2A800940144EA91648B015B1A64EB02044FF039
:10C2B80000014FF00002E20042EA5372D9000B4637
:10C2C80014465B1944EB06044FF000014FF00002DE
:10C2D800A20242EA935299020B4614461846214696
:10C2E8007B684FF000041A462346FBF769FF0346B4
:10C2F8000C46FB600A4B5B681B0C03F0030301331D
:10C308005B003B60FA683B68B2FBF3F3BB6002E09A
:10C31800044BBB6000BFBB6818461437BD46F0BD70
:10C32800003802400024F40000127A0080B400AF04
:10C33800034B1B681846BD465DF8047B704700BF79
:10C348000000002080B500AFFFF7F0FF0146054B65
:10C358009B689B0A03F00703034AD35C21FA03F3A3
:10C36800184680BD00380240C8F6000880B500AF06
:10C37800FFF7DCFF0146054B9B685B0B03F00703E7
:10C38800034AD35C21FA03F3184680BD0038024003
:10C39800C8F6000880B586B000AF786000237B61DE
:10C3A80000233B617B681B6803F00103002B05D168
:10C3B8007B681B6803F00403002B35D0624B002216
:10C3C8001A60FCF7ADFD786108E0FCF7A9FD0246AC
:10C3D8007B69D31A022B01D90323B0E05B4B1B689E
:10C3E80003F00063002BF0D17B685B689A017B68DF
:10C3F8009B681B0755491343C1F88430524B0122EF
:10C408001A60FCF78DFD786108E0FCF789FD0246AB
:10C418007B69D31A022B01D9032390E04B4B1B688D
:10C4280003F00063002BF0D07B681B6803F0020365
:10C43800002B00F083800023FB60444B1B6C434AB5
:10C4480043F080531364414B1B6C03F08053FB6033
:10C45800FB683F4B1B683E4A43F480731360FCF74C
:10C468005FFD786108E0FCF75BFD02467B69D31A43
:10C47800022B01D9032362E0354B1B6803F4807358
:10C48800002BF0D0314B1B6F03F440733B613B69C9
:10C49800002B2FD07B68DB6803F440733A699A421B
:10C4A80028D02A4B1B6F23F440733B61294B012290
:10C4B8001A60284B00221A60244A3B691367234BF1
:10C4C8001B6F03F00103012B14D1FCF729FD7861E0
:10C4D8000AE0FCF725FD02467B69D31A41F288324F
:10C4E800934201D903232AE0184B1B6F03F0020380
:10C4F800002BEED07B68DB6803F44073B3F5407F14
:10C508000DD1124B9B6823F4F8127B68DB6823F08B
:10C51800704323F440730D4913438B6005E00B4BC4
:10C528009B680A4A23F4F8139360084B1A6F7B68D8
:10C53800DB68C3F30B03054913430B670023184655
:10C548001837BD4680BD00BF68004742003802402A
:10C5580000700040400E474280B487B000AF78605A
:10C5680000237B6100233B610023FB600023BB6049
:10C578007B68012B3DD1224B9B6803F40003FB60D1
:10C58800FB68002B04D0012B2FD11E4B7B612FE0C1
:10C598001B4B5B6803F48003B3F5800F08D1184B7D
:10C5A8005B6803F03F03184AB2FBF3F33B6107E013
:10C5B800134B5B6803F03F03144AB2FBF3F33B6190
:10C5C8000F4BD3F884309B09C3F308023B6902FB85
:10C5D80003F3BB600A4BD3F884301B0F03F0070347
:10C5E800BA68B2FBF3F37B6102E000237B6100BF12
:10C5F80000BF7B6918461C37BD465DF8047B704751
:10C60800003802400080BB0000127A000024F400C9
:10C6180080B582B000AF78607B68002B01D1012320
:10C6280056E07B6800229A627B6893F85130DBB24F
:10C63800002B06D17B68002283F850207868FCF72D
:10C64800CBFA7B68022283F851207B681B681A6842
:10C658007B681B6822F040021A607B685A687B6816
:10C668009B681A437B68DB681A437B681B691A431B
:10C678007B685B691A437B689B6903F400731A4300
:10C688007B68DB691A437B681B6A42EA03017B68A3
:10C698009A6A7B681B680A431A607B689B691B0C53
:10C6A80003F004017B685A6A7B681B680A435A6076
:10C6B8007B681B68DA697B681B6822F40062DA61B0
:10C6C8007B6800225A657B68012283F85120002389
:10C6D80018460837BD4680BD80B582B000AF786087
:10C6E8007B68002B01D101233FE07B6893F8393048
:10C6F800DBB2002B06D17B68002283F838207868EB
:10C70800FCF7B2FA7B68242283F839207B681B681F
:10C71800DA687B681B6822F40052DA60786800F0F7
:10C728000BF97B681B681A697B681B6822F49042C6
:10C738001A617B681B685A697B681B6822F02A02A9
:10C748005A617B681B68DA687B681B6842F4005290
:10C75800DA607B680022DA637B68202283F839205C
:10C768007B68202283F83A20002318460837BD4604
:10C7780080BD80B588B002AFF860B9603B601346F1
:10C78800FB8000237B61FB6893F83930DBB2202BF8
:10C7980040F08380BB68002B02D0FB88002B01D1BE
:10C7A80001237BE0FB6893F83830012B01D1022389
:10C7B80074E0FB68012283F83820FB680022DA6302
:10C7C800FB68212283F83920FCF7AAFB7861FB6813
:10C7D800FA889A84FB68FA88DA84FB68002283F86E
:10C7E800382042E0FB68DB8C9BB2013B9AB2FB68C5
:10C7F800DA84FB689B68B3F5805F22D13B680093BD
:10C808007B6900228021F86800F04CF80346002B71
:10C8180001D0032342E0BB683B613B691B881A4691
:10C82800FB681B68C2F308025A60FB681B69002B8F
:10C8380003D1BB680233BB6017E0BB680133BB6040
:10C8480013E03B6800937B6900228021F86800F0C0
:10C8580029F80346002B01D003231FE0BB685A1CAC
:10C86800BA601A78FB681B685A60FB68DB8C9BB25D
:10C87800002BB7D13B6800937B6900224021F86800
:10C8880000F010F80346002B01D0032306E0FB68F4
:10C89800202283F83920002300E0022318461837A5
:10C8A800BD4680BD80B584B000AFF860B9603B601C
:10C8B8001346FB712CE0BB69B3F1FF3F28D0BB697D
:10C8C800002B07D0FCF72CFB02463B68D31ABA6949
:10C8D8009A421DD2FB681B68DA68FB681B6822F461
:10C8E800D072DA60FB681B685A69FB681B6822F023
:10C8F80001025A61FB68202283F83920FB68202254
:10C9080083F83A20FB68002283F8382003230FE0DD
:10C91800FB681B681A68BB681340BA689A420CBF68
:10C9280001230023DBB21A46FB799A42C3D00023C5
:10C9380018461037BD4680BD2DE9F04F85B000AFD1
:10C9480078607B681B681B6923F440517B68DA6850
:10C958007B681B680A431A617B689A687B681B6955
:10C968001A437B685B691A437B68DB691343FB6086
:10C978007B681B68DB6823F4164323F00C037A6892
:10C988001268F9680B43D3607B681B685B6923F402
:10C9980040717B689A697B681B680A435A617B68A7
:10C9A800DB69B3F5004F40F08B817B681B68C14A97
:10C9B800934205D07B681B68BF4A934240F0BD8014
:10C9C800FFF7D4FCB860BB681D464FF00006A846C8
:10C9D800B14618EB080349EB09049846A14618EB41
:10C9E800050849EB06094FF000014FF000024FEA35
:10C9F800C90242EA58724FEAC8018846914618EBC4
:10CA0800050049EB06017B685B681D464FF0000690
:10CA18006B1946EB06041A462346FBF7D1FB03467F
:10CA28000C461A46A54BA3FB02235B094FEA0318E1
:10CA3800BB681D464FF00006A946B24619EB09032C
:10CA48004AEB0A049946A24619EB05094AEB060A7D
:10CA58004FF000014FF000024FEACA0242EA597251
:10CA68004FEAC9018946924619EB05004AEB0601CF
:10CA78007B685B681D464FF000066B1946EB0604A1
:10CA88001A462346FBF79CFB03460C461A468B4B7B
:10CA9800A3FB02135B09642101FB03F3D31ADB0038
:10CAA8003233864AA2FB03235B095B0003F4F87365
:10CAB8009844BB681D464FF00006A946B24619EBDC
:10CAC80009034AEB0A049946A24619EB05094AEB01
:10CAD800060A4FF000014FF000024FEACA0242EA8C
:10CAE80059724FEAC9018946924619EB05004AEB8B
:10CAF80006017B685B681D464FF000066B1946EB24
:10CB080006041A462346FBF75BFB03460C461A4607
:10CB18006A4BA3FB02135B09642101FB03F3D31ADD
:10CB2800DB003233654AA2FB03235B0903F00702EB
:10CB38007B681B6842449A606FE2FFF703FCB860A9
:10CB4800BB681D464FF00006A846B14618EB08031F
:10CB580049EB09049846A14618EB050849EB060974
:10CB68004FF000014FF000024FEAC90242EA587242
:10CB78004FEAC8018846914618EB050049EB0601C3
:10CB88007B685B681D464FF000066B1946EB060490
:10CB98001A462346FBF714FB03460C461A46474B36
:10CBA800A3FB02235B094FEA0318BB681D464FF03D
:10CBB8000006A946B24619EB09034AEB0A0499464E
:10CBC800A24619EB05094AEB060A4FF000014FF09F
:10CBD80000024FEACA0242EA59724FEAC90189467D
:10CBE800924619EB05004AEB06017B685B681D4617
:10CBF8004FF000066B1946EB06041A462346FBF76E
:10CC0800DFFA03460C461A462C4BA3FB02135B09BA
:10CC1800642101FB03F3D31ADB003233274AA2FB5A
:10CC280003235B095B0003F4F8739844BB681D4653
:10CC38004FF00006A946B24619EB09034AEB0A046D
:10CC48009946A24619EB05094AEB060A4FF000017E
:10CC58004FF000024FEACA0242EA59724FEAC9018C
:10CC68008946924619EB05004AEB06017B685B682A
:10CC78001D464FF000066B1946EB06041A4623467C
:10CC8800FBF79EFA03460C461A460C4BA3FB02130D
:10CC98005B09642101FB03F3D31ADB003233074A33
:10CCA800A2FB03235B0903F007027B681B6842446D
:10CCB8009A60B2E100100140001401401F85EB5159
:10CCC8007B681B68D74A934205D07B681B68D64AA5
:10CCD800934240F0D180FFF749FBB860BB689A46A1
:10CCE8004FF0000BD046D94618EB080349EB09046E
:10CCF8009846A14618EB0A0849EB0B094FF00001CA
:10CD08004FF000024FEAC90242EA58724FEAC801DE
:10CD1800884691461AEB08054BEB09067B685B6869
:10CD280019464FF000024FF000034FF00004940042
:10CD380044EA91748B001A46234628463146FBF78D
:10CD48003FFA03460C461A46B84BA3FB02235B097D
:10CD58004FEA0318BB689B464FF0000CD946E246E1
:10CD680019EB09034AEB0A049946A24619EB0B0989
:10CD78004AEB0C0A4FF000014FF000024FEACA02DA
:10CD880042EA59724FEAC901894692461BEB0905E6
:10CD98004CEB0A067B685B6819464FF000024FF0BF
:10CDA80000034FF00004940044EA91748B001A4683
:10CDB800234628463146FBF703FA03460C461A4633
:10CDC8009A4BA3FB02135B09642101FB03F3D31AFB
:10CDD8001B013233954AA2FB03235B0903F0F003DE
:10CDE8009844BB689B464FF0000CD946E24619EBC5
:10CDF80009034AEB0A049946A24619EB0B094AEBC8
:10CE08000C0A4FF000014FF000024FEACA0242EA52
:10CE180059724FEAC901894692461BEB09054CEB4A
:10CE28000A067B685B6819464FF000024FF0000362
:10CE38004FF00004940044EA91748B001A4623468C
:10CE480028463146FBF7BCF903460C461A46774B91
:10CE5800A3FB02135B09642101FB03F3D31A1B0133
:10CE68003233724AA2FB03235B0903F00F027B688B
:10CE78001B6842449A60D0E0FFF764FAB860BB6868
:10CE88009A464FF0000BD046D94618EB080349EBF9
:10CE980009049846A14618EB0A0849EB0B094FF01C
:10CEA80000014FF000024FEAC90242EA58724FEA05
:10CEB800C801884691461AEB08054BEB09067B68C2
:10CEC8005B6819464FF000024FF000034FF0000472
:10CED800940044EA91748B001A462346284631464A
:10CEE800FBF76EF903460C461A46504BA3FB022388
:10CEF8005B094FEA0318BB689B464FF0000CD94604
:10CF0800E24619EB09034AEB0A049946A24619EBD3
:10CF18000B094AEB0C0A4FF000014FF000024FEAF0
:10CF2800CA0242EA59724FEAC901894692461BEB86
:10CF380009054CEB0A067B685B6819464FF000024E
:10CF48004FF000034FF00004940044EA91748B0002
:10CF58001A46234628463146FBF732F903460C4663
:10CF68001A46324BA3FB02135B09642101FB03F34E
:10CF7800D31A1B0132332D4AA2FB03235B0903F0AA
:10CF8800F0039844BB689B464FF0000CD946E24634
:10CF980019EB09034AEB0A049946A24619EB0B0957
:10CFA8004AEB0C0A4FF000014FF000024FEACA02A8
:10CFB80042EA59724FEAC901894692461BEB0905B4
:10CFC8004CEB0A067B685B6819464FF000024FF08D
:10CFD80000034FF00004940044EA91748B001A4651
:10CFE800234628463146FBF7EBF803460C461A461B
:10CFF8000E4BA3FB02135B09642101FB03F3D31A55
:10D008001B013233094AA2FB03235B0903F00F0219
:10D018007B681B6842449A60FFE700BF1437BD462F
:10D02800BDE8F08F00100140001401401F85EB514E
:10D0380084B080B584B000AF786007F11C0080E848
:10D048000E003B6B012B22D17B689B6B23F4803253
:10D058007B689A637B68DB6823F4840323F04003CE
:10D068007A68D3607B68DB6823F440127B68DA60F7
:10D07800FB6C012B05D17B68DB6843F480127B686D
:10D08800DA60786800F04AF90346FB731AE07B68B7
:10D09800DB6843F040027B68DA60786800F03EF9AC
:10D0A8000346FB733B6C002B06D17B689B6B43F4F8
:10D0B80080327B689A6305E07B689B6B23F480323F
:10D0C8007B689A63BB6A012B0BD17B689B6843F032
:10D0D80006027B689A607B689B6843F020027B6845
:10D0E8009A60FB7B18461037BD46BDE8804004B007
:10D0F800704780B483B000AF78607B689B6843F06A
:10D1080001027B689A60002318460C37BD465DF81B
:10D11800047B704780B483B000AF78607B689B68FD
:10D1280023F001027B689A60002318460C37BD463D
:10D138005DF8047B704780B582B000AF78600B461D
:10D14800FB707B68DB6823F0C0427B68DA60FB78A1
:10D15800012B06D17B68DB6843F000527B68DA60FC
:10D168000BE0FB78002B06D17B68DB6843F080423C
:10D178007B68DA6001E0012303E03220FBF7DCFE84
:10D18800002318460837BD4680BD000080B485B02E
:10D1980000AF786039600023FB603B689B0143F077
:10D1A80020027B681A61FB680133FB60FB68094A4F
:10D1B800934201D9032306E07B681B6903F020032F
:10D1C800202BF0D0002318461437BD465DF8047BA9
:10D1D800704700BF400D030080B485B000AF786091
:10D1E8000023FB607B6810221A61FB680133FB6037
:10D1F800FB68094A934201D9032306E07B681B694F
:10D2080003F01003102BF0D0002318461437BD4646
:10D218005DF8047B704700BF400D030080B489B0FF
:10D2280000AFF860B96011461A460B46FB71134609
:10D23800BB80FB687B61BB68FB6197F82830002BDB
:10D248001AD1BB8803339B083B610023BB610FE005
:10D25800FB791A037B69134403F580531A46FB696B
:10D268001B681360FB690433FB61BB690133BB6155
:10D27800BA693B699A42EBD3002318462437BD4666
:10D288005DF8047B704780B489B000AFF860B9607E
:10D298001346FB80FB687B61BB68FB61FB8803333B
:10D2A8009B083B610023BB610BE07B6903F580535E
:10D2B8001A68FB691A60FB690433FB61BB690133B7
:10D2C800BB61BA693B699A42EFD3FB6918462437B8
:10D2D800BD465DF8047B704780B485B000AF7860C8
:10D2E8007B685B69FB607B689B69FA681340FB603D
:10D2F800FB6818461437BD465DF8047B704780B458
:10D3080083B000AF78607B685B6903F0010318465F
:10D318000C37BD465DF8047B7047000080B485B0CB
:10D3280000AF78600023FB60FB680133FB60FB689B
:10D33800134A934201D903231BE07B681B69002B26
:10D34800F2DA0023FB607B681B6943F001027B680B
:10D358001A61FB680133FB60FB68094A934201D9F3
:10D36800032306E07B681B6903F00103012BF0D05F
:10D37800002318461437BD465DF8047B704700BF8C
:10D38800400D030084B080B584B000AF786007F129
:10D398001C0080E80E007B68BB60BB6803F5606317
:10D3A8001A46002313607B689B6B43F400127B686A
:10D3B8009A637B689B6B23F400227B689A637B6883
:10D3C8009B6B23F480227B689A637B68DB6B03F496
:10D3D8008073002B18D07B6A012B0AD1BB6803F538
:10D3E80080631B68BA6802F5806243F00403136027
:10D3F80014E0BB6803F580631B68BA6802F58062B5
:10D4080023F00403136009E0BB6803F580631B681D
:10D41800BA6802F5806223F004031360102178686B
:10D42800FFF7B4FE7868FFF7D7FE0023FB6015E02E
:10D43800FB685A01BB68134403F5A0631A464FF012
:10D44800FF339360FB685A01BB68134403F5A0637C
:10D458001A460023D360FB680133FB603B6AFA6815
:10D468009A42E5D30121786800F082F8C820FBF7DA
:10D4780063FD7B6800229A617B684FF0FF325A6136
:10D488007B68DB6B03F48073002B0BD07B684FF455
:10D4980000725A627B68144A9A627B68134AC3F81E
:10D4A800002109E07B6880225A627B68104A9A62F0
:10D4B8007B68104AC3F80021BB6A002B05D17B6842
:10D4C8009B6943F010027B689A617B689A690A4BF2
:10D4D80013437A689361002318461037BD46BDE8A8
:10D4E800804004B0704700BF000200010003E00064
:10D4F80080006000E0004000080020A380B485B0F0
:10D5080000AF78600B46FB707B68FB60FB6803F537
:10D5180080631B68FA6802F5806223F003031360D6
:10D52800FB6803F580631A68FB7803F00303F96866
:10D5380001F5806113430B60FB78012B07D1FB6871
:10D5480003F580631A464BF68033536009E0FB7895
:10D55800022B06D1FB6803F580631A4641F270730B
:10D568005360002318461437BD465DF8047B7047A6
:10D5780080B485B000AF78600B46FB707B68FB60B9
:10D588000023BB60FB6803F588631B68BB60BB684E
:10D5980023F02E03BB60BB6803F48053002B09D132
:10D5A800FB78012B06D1BB68FA6802F5886243F460
:10D5B80080531360BB6803F48053B3F5805F09D1CF
:10D5C800FB78002B06D1BB68FA6802F5886223F461
:10D5D80080531360002318461437BD465DF8047B5A
:10D5E800704780B485B000AF78607B68FB60FB68EB
:10D5F80003F580639B689BB218461437BD465DF8F7
:10D60800047B704780B487B000AF78600846114645
:10D618001A460346FB700B46BB7013467B7000230B
:10D62800FB757B68BB60FB785A01BB68134403F544
:10D63800A0631A464FF0FF33936097F82430032B0A
:10D648007ED801A252F823F061D600080BD7000853
:10D6580061D60008CDD60008FB785A01BB68134490
:10D6680003F5A0631A4640F29D43D36097F9023050
:10D67800002B10DAFB785A01BB68134403F5A0634A
:10D68800DB68FA785101BA680A4402F5A06243F4EB
:10D698008073D36057E07B68DB6B03F48073002BE7
:10D6A80051D0FB785A01BB68134403F5A063DB68CB
:10D6B800FA785101BA680A4402F5A06243F060039F
:10D6C800D36040E0FB785A01BB68134403F5A063BC
:10D6D8001A4640F29D63D36097F90230002B34DA82
:10D6E800FB785A01BB68134403F5A063DB68FA783A
:10D6F8005101BA680A4402F5A06243F48073D3600A
:10D7080023E0FB785A01BB68134403F5A0631A466B
:10D7180040F22523D36097F90230002B17DAFB7803
:10D728005A01BB68134403F5A063DB68FA7851011A
:10D73800BA680A4402F5A06243F4C073D36006E0F5
:10D748000123FB7504E000BF02E000BF00E000BF5A
:10D75800BB6803F580639A69FB7803F00F03012126
:10D7680001FA03F3B96801F5806113438B617B68A3
:10D778009B6943F000727B689A6197F90230002B2D
:10D7880003DA4FF400433B6101E000233B6197F863
:10D798002030022B03D14FF40033FB6001E000235B
:10D7A800FB607B789B0503F0FE52BB78DB0203F439
:10D7B800F0431A4397F824309B0403F440231A4398
:10D7C8003B8DC3F30A031A433B691A43FB7859019B
:10D7D800BB680B4403F5A0631946FB6813430B6051
:10D7E80097F82430032B0FD1FB785A01BB681344F8
:10D7F80003F5A0631B68FA785101BA680A4402F578
:10D80800A06243F000531360FB7D18461C37BD46E9
:10D818005DF8047B704700BF80B58CB002AFF8603C
:10D82800B9601346FB71FB683B62BB685B78FB61C0
:10D838004FF480737B83FB68DB6B03F48073002BEE
:10D8480028D0BB681B79002B24D1FB79002B0BD186
:10D85800BB685B79012B07D1BB685B781946F86810
:10D8680000F030FA002314E1FB79012B12D1FB6997
:10D878005A013B6A134403F5A063DB68FA69510156
:10D888003A6A0A4402F5A06223F06003D360BB68D9
:10D8980000225A71BB681B69002B18D0BB681B6932
:10D8A800BA6812891344013BBA681289B3FBF2F3D0
:10D8B800FB84FA8C7B8B9A420BD97B8BFB84FB8C89
:10D8C800BA68128902FB03F2BB681A6101E00123FE
:10D8D800FB84BB68DB78002B06D0FB8CBA68128906
:10D8E80002FB03F2BB681A61BB681B69C3F312022F
:10D8F800FB8CD904694B0B401A43BB689B7A5B07C6
:10D9080003F0C043F9694801396A014401F5A0618F
:10D9180013430B61FB79002B09D0BB68D968FB69FD
:10D928005A013B6A134403F5A0630A465A613B6AED
:10D9380003F580639B6803F00103002B0CBF0123F0
:10D948000023DBB27B76FB695A013B6A134403F57B
:10D95800A0631B68FA6951013A6A0A4402F5A06299
:10D9680023F000531360FB695A013B6A134403F523
:10D97800A0631A687B7E5B07F9694801396A01442C
:10D9880001F5A06113430B60FB695A013B6A13441C
:10D9980003F5A0631B68424A1360414B1B6823F0E0
:10D9A80080433F4A1360BB68DB78002B06D03C4BB2
:10D9B8001B6843F400433A4A136005E0384B1B6880
:10D9C80023F40043364A1360354B1B6843F0004389
:10D9D800334A1360FB695A013B6A134403F5A06399
:10D9E8001A462F4B1B681360FB79002B01D00023CC
:10D9F8004FE0BB68DB78002B4AD1BB681B69002B62
:10DA080046D0BB68DB79032B30D801A252F823F04B
:10DA180029DA00084DDA000829DA00084DDA00088A
:10DA2800BB681B6903339B08FB82FA8AFB68DB6AC5
:10DA38009BB29A421CD9FB689B6943F02002FB68A1
:10DA48009A6115E0BB681B6903339B08FB82FA8A5D
:10DA58003B6A03F580631B699BB29A420AD9FB684B
:10DA68009B6943F08062FB689A6103E000BF02E0B3
:10DA780000BF00E000BFBB68D968BB685A78BB68C4
:10DA88001B6998B2002300930346F868FFF7C6FBAA
:10DA9800002318462837BD4680BD00BF0000F81F88
:10DAA800B000002080B485B000AF78607B68FB6070
:10DAB800FB6803F580635B699BB218461437BD4663
:10DAC8005DF8047B704780B487B000AF78600B4680
